:020000022000DC
:107000000000042035C302005DC302005FC302001C
:1070100061C3020063C3020065C3020000000000F8
:1070200000000000000000000000000067C3020034
:1070300069C3020000000000000000000000000022
:10704000A50905006BC3020039280500910F050052
:107050006BC30200E5050500BD03050001C805007E
:10706000BD0E0500D10E0500E50E05006BC3020044
:107070006BC302006BC302006BC302006BC3020050
:1070800005D5050051D304006BC302006BC3020099
:107090006BC302006BC30200ADF004006BC30200BF
:1070A0006BC302006BC30200F90E05000D0F050053
:1070B0006BC302006BC30200000000000000000070
:1070C0006BC302006BC302006BC302003DCD050021
:1070D000D50B05006BC302006BC3020049250500F8
:1070E000C5E505006BC30200050D060000000000A9
:1070F000000000006BC30200000000000DD105007D
:10710000000000000000000000000000000000007F
:10711000000000000000000000000000000000006F
:10712000000000000000000000000000000000005F
:10713000000000000000000000000000000000004F
:10714000000000000000000000000000000000003F
:10715000000000000000000000000000000000002F
:10716000000000000000000000000000000000001F
:10717000000000000000000000000000000000000F
:1071800000000000000000000000000000000000FF
:1071900000000000000000000000000000000000EF
:1071A00000000000000000000000000000000000DF
:1071B00000000000000000000000000000000000CF
:1071C00000000000000000000000000000000000BF
:1071D00000000000000000000000000000000000AF
:1071E000000000000000000000000000000000009F
:1071F000000000000000000000000000000000008F
:1072000010B5054C237833B9044B13B10448AFF3E0
:1072100000800123237010BDC0D1002000000000B9
:107220007C30070008B5034B1BB103490348AFF39B
:10723000008008BD00000000C4D100207C300700A1
:10724000154B002B08BF134B9D46A3F5803A002138
:107250008B460F461348144A121A02F0D9FE0F4B00
:10726000002B00D098470E4B002B00D098470020F1
:10727000002104000D000D48002802D00C48AFF397
:10728000008002F069FE2000290002F0EDFB02F010
:107290004FFE00BF000008000000042000000000B6
:1072A00000000000C0D1002024D501200000000013
:1072B0000000000008B500F0EDFD10B1014B012207
:1072C0001A7008BDE1D1002008B500F0E3FD10B14F
:1072D000014B01221A7008BDE0D1002030B591B0F9
:1072E00001F07EF8012203464021684601F0ABFA26
:1072F000134C144BE41AE408051E4FEA044406DC60
:10730000114944F0020025F021F911B030BD0023ED
:10731000EAB269460B2000F01BFE30B10B492A4649
:1073200044F0030025F016F9EFE700F0B3FD08493B
:1073300002462B4644F0020025F015F9E5E700BFB0
:10734000A832070030320700206A0600376A0600BC
:10735000516A060030B50C46C1B08D18AC420ED053
:1073600014F8010B01F03EFD0128F7D1684601F049
:10737000D7FD0028F2D1684601F00AFDEEE741B0E2
:1073800030BD00F0D9BD00002DE9F043036891B095
:10739000054601220BB11343184700F081FD00F0B0
:1073A00079FD88B907F0A4FF544B1860544B2B604B
:1073B00007F09EFF514B1B68C01AB0F57A7FECD8DE
:1073C000002011B0BDE8F0834E4B4F4C4F49E41AFA
:1073D000E408240444F00304204625F0B7F84C499F
:1073E000002028F08DF900F0D9FE2046494925F00B
:1073F000ADF8002400F0A6FD002851D000F0A2FD59
:10740000414B454902463F481B1ADB081B0443F029
:10741000030025F09FF8FFF761FF00223F4B2B6030
:10742000002A69D03E4B1A781AB100221A70FFF771
:1074300055FF3C4B1A781AB3DFF808814FF000096A
:1074400083F8009000F0D6FD00F02EFE98F8003092
:10745000C31A0433082B074612D9034601224021E0
:10746000684601F0FEF9284C264BE41AE408061E93
:107470004FEA044426DC2C4944F0020025F066F86B
:1074800007F036FF294B1860294B2B6007F030FFBF
:10749000264B1B68C01A64284FF00002BED88FE745
:1074A00007F026FF234B1860234B2B6007F020FFCB
:1074B000204B1B68C01AB0F57A7F81D90134812C2A
:1074C0009CDC97E74B46F2B26946142000F040FD81
:1074D00048B11A4988F8007033463A4644F0030030
:1074E00025F041F8CCE700F0D5FC1549024644F000
:1074F000020025F02FF8C3E7012062E7E4D1002065
:10750000AC73020030320700A8320700796A060027
:10751000906A0600B26A0600D56A06001C74020072
:10752000E0D10020E1D10020E56A0600ECD1002086
:1075300088740200E8D10020A8740200FF6A0600E7
:107540001D6B060094A1002038B50368084D044661
:1075500023B900F0F3F907F0CBFE2860054B236058
:1075600007F0C6FE2B68C01A0A28F2D8002038BDE2
:10757000F0D100205C7502007FB53C493C4D3D4E8A
:10758000002028F0BDF83C4B3C4901245C60002001
:1075900028F0B6F83A49002028F0B2F800F0DEFBF7
:1075A000384800F071FC3849002028F0A9F8374924
:1075B000002028F0A5F801F003FD00F04FFA00F0DC
:1075C00003F93349002028F09BF800F0C3FE31494D
:1075D000002028F095F800F049FD2F49002028F000
:1075E0008FF801F005F82D49002028F089F800F007
:1075F0001FFF00F001FF039000F0F2FE029000F088
:1076000001FFDDE9023200902549002028F078F8DA
:107610002449002028F074F800F0C0FD2249002021
:1076200028F06EF82346214A0021284607F00BFD7A
:10763000002332461946284607F00FFD234621460F
:107640001B4A284607F0FFFC214600233246284605
:1076500007F003FD174B184900201860174B1860FE
:1076600004B0BDE8704028F04BB800BF416B060085
:10767000F9EC0020E093040000500040576B060036
:107680007E6B060055730200A96B0600CA6B0600EC
:10769000F56B0600186C0600386C0600586C060086
:1076A000796C06009B6C0600BE6C0600C972020075
:1076B000B5720200FCD10020D66C0600F8D1002083
:1076C0001FB51548FFF760FE1448FFF73DFF07F0B0
:1076D0000FFE134A136847F22F51C31A8B4288BF1B
:1076E0001060104A136842F21071C31A8B420FD90E
:1076F000106000F0CFFB039000F0CEFA029000F093
:10770000D3FCDDE9023200900749002027F0F8FFA2
:1077100005B05DF804FB00BFFCD10020F8D10020CB
:10772000DCD10020F4D10020F06C0600082882B0E3
:1077300023D8144B03EBC00133F830308A78ADF80E
:1077400004308DF80620CB888A88C978042914D89B
:10775000DFE801F003060D13100002B000F0AEBF29
:10776000002301991A46012002B000F0B7BF019929
:107770000220F9E701990420F6E76FF0150002B046
:10778000704700BF02D20020082817D80D4A0623F0
:1077900003FB002292F8480092F84910012804D017
:1077A000022806D050B900F0BDBE00231A4600F0F2
:1077B0007BBEB2F84C30B2F84A20F8E76FF0150003
:1077C000704700BF02D2002008B57E220749084852
:1077D00002F0F6FB074B08480849C01AC00800042D
:1077E00040F0030024F0B2FE002008BD046E060045
:1077F00002D2002030320700A83207005A6D06007E
:10780000194B1B782DE9F3414BBB00F045FA174F9C
:10781000DFF86880044600F04BFA3B789C4206464D
:1078200003D198F80020824215D01148114D124919
:1078300000932D1AED082D043346224645F003002F
:1078400024F09BFE20463C7088F80060FFF76EFF36
:107850002046FFF799FF00F071FF00F073FE002053
:1078600002B0BDE8F08100BF00D20020BCA1002022
:1078700030320700A83207008D6D060001D20020CB
:10788000F3B40546184604281446BDF81C30BDF86C
:1078900018200DD88DF804508DF805108DF806408D
:1078A000064E01990127377002B0F0BC00F016BFF8
:1078B0006FF0150002B0F0BC704700BF00D200208E
:1078C000022830B405D8054C0125257030BC00F0E5
:1078D000EBBD6FF0150030BC704700BF00D2002038
:1078E00010B40F4B1B78082B17D10E4B1B78A3B984
:1078F000042898BF0C4B0D4C98BF53F820200C4B1C
:1079000088BF0C4A0C49E41AE4082404034644F0F6
:1079100003005DF8044B24F026BE5DF8044B70476D
:10792000BCA1002000D20020846E0600A83207000F
:1079300030320700BA6D0600C26D060010B5FFF7C1
:1079400020FD124B1A688242044612D0186010487B
:10795000104B11491B1ADB081B0443F0030022469D
:1079600024F0F8FD0D4B1B78082B02D12046FFF7C1
:10797000B7FF0B4B1B781BB9BDE81040FFF740BFAA
:1079800000F0DCFEBDE8104000F0DCBDB8A1002036
:1079900030320700A8320700D76D0600BCA10020D6
:1079A00000D200200048704702D2002008B50146EE
:1079B0007E22024802F004FB002008BD02D2002013
:1079C0002DE9F047164BDFF85CE000249EF80070CC
:1079D0007A1EA24222DD01341A462646B74201DC55
:1079E0000833F3E793F801C0517A8C4502F108059A
:1079F00011D995E8030093F800A093F80290D3F80A
:107A0000048083E8030082F808A082F809C082F8A5
:107A10000A90C2F80C8001362A46DFE7BDE8F087FD
:107A200094D2002080D20020002838B510DB094D08
:107A30002C7884420CDDC300221A074803F10801A8
:107A4000013A0144D2001844013C02F0C7FA2C70FC
:107A500038BD00BF80D2002094D20020124B1348C2
:107A6000052210B59A700622DA7007221A710422D4
:107A70005A7103229A7102220024DA7101221A72C9
:107A8000214640225C7002F0C3FA094B09481C7081
:107A9000094B0A49C01AC008000440F0030024F052
:107AA00055FD204610BD00BF81D2002094D2002099
:107AB00080D20020A832070030320700986E0600FE
:107AC0002DE9FF47431E072B054688460FD9454B36
:107AD00045484649C01AC008000440F002002A4642
:107AE00024F038FD6FF0150004B0BDE8F087404B7E
:107AF000404F13F800903B7804280FD103B33E4B5E
:107B00005C78ECB93848374B3C49C01AC0080004CF
:107B100040F0030024F01AFD0020E5E783B1364B66
:107B20005B786BB9B9F1000F0AD02F482D4B34495F
:107B3000C01AC00800042A4640F0030024F00AFDE1
:107B40003A782D4C00239A423BDD14F83310A942B9
:107B500028D00133F7E7DFF8A0A001230AEBC20623
:107B600003FA08F3B37086F801900AF8325007F070
:107B7000BFFB70603E780136F6B23E70FFF720FF23
:107B800044F003005EB19AF801301E49CDF8008040
:107B9000CDE901632A464B4624F009FDBCE74FF0CE
:107BA000FF33F2E704EBC304012101FA08F194F872
:107BB000028048EA010884F8028007F099FB6060BF
:107BC000AAE7094C0748241AE408072A4FEA0444A4
:107BD000C1D944F001000C49082224F0BBFC6FF02D
:107BE0000B0081E730320700A8320700B86E0600AC
:107BF00081D2002080D2002094D20020D36E0600D3
:107C0000016F06005C6F06003C6F060010B50D4B5F
:107C10001B789BB10C4B5C7884B90C4B0C480D491C
:107C2000C01AC008000440F0030024F08FFC204676
:107C3000FFF7FAFEFFF7C4FE204610BD6FF001000B
:107C4000FBE700BF80D2002094D200203032070032
:107C5000A8320700926F060010B5402200210948A3
:107C600002F0D6F9084B0948094900241C70094B59
:107C7000C01AC008000440F0030024F067FC20464E
:107C800010BD00BF94D2002080D20020A83207008F
:107C9000AF6F060030320700034B1B7813B1034B64
:107CA000587870470820704780D2002094D2002076
:107CB000024B187808B1024B1878704780D2002028
:107CC00094D200200F289ABF014B185C08207047FF
:107CD00081D20020027A2AB1034B1B6813B141689C
:107CE00000781847704700BFE0D2002058B9144B05
:107CF0001448154903221A60144BC01AD0400004DE
:107D0000104324F023BC0E280BD1114B0D48114910
:107D100001221A700D4BC01AC008000440F0030085
:107D2000EFE70F280BD10A4B06480B4900221A70C7
:107D3000064BC01AC008000440F00200E1E770479B
:107D4000E4D20020A8320700CD6F060030320700D1
:107D5000DCD20020E96F0600FF6F0600F0B5344862
:107D6000344C89B007F0B6F8334BE41AE408240425
:107D7000012844F003040ED02D4807F0AFF82F4936
:107D80002F4A002808BF0A4620462E4924F0E2FB6D
:107D90002D4807F039F92D4A106851682C4A6B4676
:107DA00003C31068516803C32A4B04AA03F11007E8
:107DB000164618685968154603C50833BB422A465B
:107DC000F7D169460822244807F01BF808220DEB7A
:107DD0000201224806F0F1FF10223146204806F049
:107DE000FEFF05211F4807F061F801211E4807F03A
:107DF0004BF801211D4807F025F801211C4807F028
:107E000033F801211B4806F0B9FF00211A4807F09A
:107E10000AF81A49174806F0C0FF1949154806F034
:107E2000C4FF18490522204624F094FB09B0F0BD98
:107E300055ED0020A8320700303207001B70060005
:107E4000137006002070060090EC0020E070060021
:107E50006A7006007370060036ED002032ED0020D7
:107E600033ED002052ED00203EED00203BED0020E0
:107E70003DED002031ED002039ED0020D57C0200E1
:107E8000ED7C02003F700600014B1860704700BF98
:107E9000E0D20020014806F0E5BF00BF3CED002025
:107EA0002DE9F0411E481F4D06F0DCFF044648B1A5
:107EB0002B68032B04D003232B601B4B00221A706A
:107EC000BDE8F08107F014FA2B68184F013B012B35
:107ED000064620D9144B38601C70134C144894F893
:107EE00000800123B8F1050F28BF4FF005082B6073
:107EF00006F00DFF2378052B9CBF013323700D4B3B
:107F000053F828002378052B064488BF04233E60DD
:107F100088BF2B60D4E73B688342D1D8DDE700BF40
:107F20003CED0020E4D20020D4D20020D8D20020A2
:107F300031ED0020E8700600014B1868704700BF63
:107F4000E4D20020014B1878704700BFDCD200203B
:107F50002DE9F04F85B006461E4803931E4C0F4690
:107F6000904606F07FFF1D4BE41AE408240444F019
:107F70000204824638B91A49204624F0E7FA5046EE
:107F800005B0BDE8F08F174B93F800A0BAF1000FD1
:107F900001D11549F0E7DFF854B0DFF8549000251F
:107FA00003230193039B00933A46334641465846C8
:107FB00006F0BEFE82460028E1D101352A46494638
:107FC000204624F0C7FA4FF4FA600DF00FFA032DA3
:107FD000E6D1D4E73CED0020A8320700303207009C
:107FE00084700600DCD200209B70060031ED00207A
:107FF000B970060008B5184807F008F8DFED177AE1
:10800000174A184920EE270ABCEEC00A10EE103AB3
:108010009BB2B3F5616F138005D364230B7000230B
:10802000114A137008BD40F6B832934203D80023BA
:108030000B700123F4E76422A3F6B83353434FF4E3
:108040001672B3FBF2F20A7044F24F6293428CBF95
:1080500000230123E4E700BFF5EC002000007A4490
:10806000E8D20020BDA10020EAD2002008B5FFF729
:10807000C1FF084B0848094A09491288C01AC008BC
:10808000084B00041B7840F0030024F06CFA002039
:1080900008BD00BF30320700A8320700E8D2002038
:1080A00000710600BDA10020014B1878704700BF89
:1080B000BDA100202DE9F043314C3248022323704A
:1080C000012363700623A3700A23E370092323713D
:1080D0002D4B1A68C4F805205A681B7A63730B236A
:1080E000A373FF23E373AC23237485B00423C4F884
:1080F0000920637406F002FE0646E8B102F0D4FCE3
:108100000B2802461BD82149002027F0F9FA00234A
:108110000293ADF80C301E4BBDF80C200298C4F849
:1081200012009A80012323760C236376194B1A22BE
:108130001A7005B0BDE8F0834FF0FF32E3E716494F
:108140003246002027F0DCFA002502AFA846A946F7
:10815000ADF804908DF8068016F815308DF80430CF
:10816000731C102213F815308DF80530002101A87A
:1081700002F020FD0135062D07F8010BE8D1CAE712
:10818000EBD2002019ED00202771060031710600A6
:10819000FDD200200AD300204F71060010B5194906
:1081A000194C002027F0ACFA0121184806F09BFD7D
:1081B0004FF4FA700DF01AF9FFF77CFF227814499A
:1081C000002027F09DFA22781249134806F07FFD1F
:1081D00028B9124927F094FA6FF0040010BD104935
:1081E000002027F08DFA0F48002106F07FFD08B926
:1081F0000D49EFE723780D4A0D49002027F080FA5A
:108200000020EBE75E7106000AD3002008ED002095
:1082100080710600EBD2002029ED00209F7106003E
:10822000C771060018ED0020E371060027710600F3
:10823000087206007FB508300FC80DF1180C0CE964
:108240000F000B4A012308216846CDE9002300F006
:10825000E5FE182302906A460021064806F0E9FE72
:1082600000280CBF6FF00400002007B05DF804FB8D
:1082700041524F4CF7EC002070B590B001464023BE
:1082800010486A4606F0CBFEB8B16C460FCC0E4ED5
:1082900035460FC594E8030032680C4B9A4285E8D6
:1082A000030006D10821304600F0B8FEB3688342CF
:1082B00006D06FF0490010B070BD6FF00400FAE70F
:1082C0000020F8E7F7EC00200CD3002041524F4C7F
:1082D00010B5194C194A012308212046C4E900238E
:1082E00000F09CFE1823A06022461548002106F0ED
:1082F000A0FEE8B1134A1248136813F0010F03F10E
:108300000103136014BF4FF480514FF40051182340
:10831000224606F08EFE0C4B0C48227B0C49C01AFC
:10832000C008000440F0030024F014F9002010BD40
:108330006FF00400FBE700BF0CD3002041524F4C0C
:10834000F7EC002024D3002030320700A8320700C9
:1083500036720600F8B50020FFF78EFF1A4F18B9E5
:1083600001233B700020F8BD4FF48050FFF784FFDD
:1083700028B9012315483B70FFF75CFFF2E74FF483
:108380000050FFF779FF0028F3D0114D0F4E0FCDAD
:1083900034460FC495E8030084E803000821304602
:1083A00000F03CFE01233B70B060FFF791FF094BEA
:1083B0000948327B0949C01AC0080004F37B40F029
:1083C000030024F0D0F8CDE70BD300200CD300201D
:1083D0009472060030320700A8320700527206007D
:1083E000014B187B704700BF0CD30020014B187362
:1083F000FFF76EBF0CD30020014B987B704700BF86
:108400000CD30020014BD87B704700BF0CD3002059
:10841000064B1B7833B10022002340F6B831092007
:1084200006F018BF092006F0FBBE00BFC2A1002065
:1084300013B50121092006F0D6FE092006F0F0FE52
:10844000154B16481649C01AC008000440F0030036
:1084500040F6B8330922019024F085F811490198BB
:1084600024F074F800240022002340F6B8310920DB
:1084700006F0F0FE64200CF0B9FF092006F0D0FEF3
:10848000022C02D0C8200CF0B1FF0134032CEAD139
:10849000002002B010BD00BF30320700A832070034
:1084A000AC720600DB72060038B50A29154D164C71
:1084B00028BF0A212970154920700A80144A012812
:1084C0001380144B0CBF3C221E221A6006F010FFD2
:1084D000114B24781860114B18602CB1013C012C11
:1084E00009D96FF0150005E00D4B09201C7006F04E
:1084F00097FE002038BD0A4B01221A70FFF788FF53
:10850000F7E700BFC2A1002030D30020BEA10020A9
:10851000C0A1002028D3002034D300202CD3002079
:1085200031D3002010B5054B00241C70044B0920EA
:108530001C7006F075FE204610BD00BF30D3002031
:1085400031D3002010B5204C2378002B3AD006F010
:10855000CFFE1E4B1A681E4B1B684FF47A71C31A6C
:10856000B3FBF1F39A420DD81A4B1B481B49C01AB2
:10857000C008000440F0030023F0ECFFBDE8104009
:10858000FFF7D0BF2378022B1CD1154A1549136879
:108590000C78C31A5CB1144C24889C4212D8002376
:1085A0001060BDE8104009200B7006F039BE0F4C7A
:1085B00024889C4206D80123BDE810400B7010604F
:1085C000FFF726BF10BD00BF30D3002028D3002006
:1085D00034D3002030320700A8320700F5720600BD
:1085E0002CD3002031D30020BEA10020C0A1002048
:1085F00010B501210F2006F0F6FD00210F2006F036
:1086000009FE01200CF0F2FE114C0121182006F0A9
:10861000EAFD0121182006F0FDFD204600F012FDC4
:10862000204600F01AFF204600F066FD2046FF219C
:1086300000F0EDFE074B08480849C01AC0080F2398
:1086400000041A4640F0030023F08DFF002010BD07
:1086500040D3002030320700A83207001073060014
:108660007FB5144E03900024642530789DF80E10D9
:108670009DF80C309DF80D2011FB00F1B1FBF5F1D8
:10868000C9B213FB00F312FB00F200910A48B3FBDE
:10869000F5F3A1B2DBB20134B2FBF5F2D2B200F0D5
:1086A00091FE0F2CE1D1044800F026FD002004B01B
:1086B00070BD00BFC3A1002040D3002010B5054B02
:1086C000054800241C7000F0C8FE034800F014FDAB
:1086D000204610BD38D3002040D3002037B501918B
:1086E0001049BDF8045008700F4904469DF8060073
:1086F0000D8088700D490A800D4A13800D4B0122B0
:108700001A7006F0F5FD0C4B186024B903B0BDE8F3
:108710003040FFF7D3BF019803B0BDE83040FFF70A
:108720009FBF00BF38D3002039D30020C4A1002050
:10873000C6A1002058D300203CD30020174B1B7843
:10874000012B10B529D906F0D3FD154A1549136838
:108750000C78C31A74B1144C24889C421DD8002391
:10876000106012480B7000F078FEBDE810400F4812
:1087700000F0C2BC0E4C24889C420ED810600D4AFA
:10878000012350780B70137843EA00239078BDE8FA
:10879000104043EA0040FFF763BF10BD38D300200C
:1087A0003CD3002058D30020C4A1002040D3002097
:1087B000C6A1002039D3002010B5074C0F22114666
:1087C0002046522300F0E8FD2046044A0449BDE853
:1087D000104001F099BB00BF40D3002090A10020C1
:1087E00027900200F8B59DF818C00CF109058D42DC
:1087F0000446674624D8AA21017055214170012101
:10880000817004F1090600201946E0702271607140
:108810006246E0712072A571304601F0D1FB00F094
:108820002FF80721204600F031F83946304600F095
:108830002DF800F04DF8030A2072E3712846F8BDC8
:108840006FF01B00FBE71FB58DF80D3002238DF88C
:108850000C200093002203ABFFF7C4FF05B05DF8C6
:1088600004FB1FB58DF80D3002238DF80C2000930A
:10887000012203ABFFF7B6FF05B05DF804FB000073
:10888000014B00221A8070475AD3002070B50F4C5C
:1088900023880144002541F22106814212D010F8BC
:1088A000012B012583EA0223082213F4004F02F171
:1088B000FF324FEA430318BF734012F0FF029BB22E
:1088C000F3D1EAE705B1238070BD00BF5AD3002081
:1088D000014B1888704700BF5AD30020006800BAC7
:1088E000704710B54C1EE4B2FD2C01D8994207D157
:1088F000802807D018B1104214BF0120002010BDFD
:108900000020FCE70120FAE700207047012910B59C
:1089100003460CD81D481E4B1E49C01AC00800044F
:1089200040F0020023F012FE6FF015001BE01A4A1F
:108930005C7800781278022914BF997800210C2302
:10894000FFF7CFFFF8B17CB9114B10481349C01A9B
:10895000C008000440F0030023F0F8FDFFF77CF9A5
:10896000FEF74EFF002010BD012CDDD1084B07485B
:108970000B49C01AC008000440F0030023F0E6FDD4
:10898000FFF744F9ECE76FF00C00ECE7A8320700C2
:10899000303207003B7306005CD3002052730600A0
:1089A000667306000B292DE9F04705460DD81F4BCD
:1089B0001F482049C01AC008000440F0020023F0FC
:1089C000C5FD6FF01500BDE8F087447890F802907F
:1089D0000330FFF783FF0646E81DFFF77FFF164AC7
:1089E000EF7A127880460C2328780021FFF779FF70
:1089F000C8B114F0010310D04FF6FF739E4228BF98
:108A00001E46984528BF9846B2B21FFA88F3022046
:108A10003946BDE8F047FEF753BFB9F1000018BF73
:108A200001201A46F4E76FF00C00CCE73032070063
:108A3000A83207008A7306005CD300200E292DE9B6
:108A4000F74F04460ED8244B24482549C01AC008C5
:108A5000000440F0020023F079FD6FF0150003B030
:108A6000BDE8F08F867890F803B00430FFF736FF4A
:108A7000054604F10800FFF731FF1A4A94F80C800C
:108A8000127894F80D9094F80EA007460C232078E5
:108A90000021FFF726FFD8B116F0010212D04FF6E1
:108AA000FF72954228BF1546974228BF1746ADB2C0
:108AB000BAB20223CDE90052494652464046FEF77B
:108AC000DFFECCE7BBF1000318BF01231546F1E739
:108AD0006FF00C00C3E700BF30320700A832070078
:108AE000A27306005CD300202DE9F04F1729A7B030
:108AF00004460ED84748484B4849C01AC0080004ED
:108B000040F0020023F022FD6FF0150027B0BDE811
:108B1000F08F434A90F80180127800780C230021EE
:108B2000FFF7DFFE002871D0B8F1070FECD83D4BFE
:108B300013F80830FF2BE7D0601DFFF7CFFE074684
:108B400004F10900FFF7CAFE627DE57894F804B0ED
:108B500094F816A0059206461846E47DFFF7B2F891
:108B600008288146D0D8FEF71DFF7E22014606A8C0
:108B700001F026FA26AB03EBC90205F00105691CDA
:108B8000059B02F87D1C002102F8803C42F87C1C09
:108B900002F87FAC594602F87E4C26AB062202FB57
:108BA00009320A2928BF0A2102F8371C35B34FF6CB
:108BB000FF70874228BF074686424FF0020128BF58
:108BC000064602F8381C22F8367C22F8346C06A8D7
:108BD000FEF7ECFE104A0F48059B0093801AC00870
:108BE000000440F00300CDE9024B0F49CDF804A08A
:108BF0004B46424623F0EBFC002087E7012102F8B8
:108C0000381C22F8345C22F8365CE0E76FF00C0088
:108C10007CE700BFA832070030320700BA730600B5
:108C20005CD30020C1740600D2730600012973B51D
:108C30000ED82248224B2349C01AC008000440F035
:108C4000020023F083FC6FF01504204602B070BDD3
:108C500005781D4A44781278022914BF81780021D2
:108C60000C232846FFF73DFE20B31448144BC01ACE
:108C7000C008072C4FEA004003D8144B1E5DFF2E9E
:108C800006D11349224640F0020023F063FCDAE7E4
:108C90002346104900962A4640F0030023F06DFC5D
:108CA00000213046FEF70CFF04460028CDD1FEF728
:108CB000A7FDCAE76FF00C04C7E700BFA8320700A2
:108CC00030320700127406005CD30020C174060025
:108CD0002B7406004C74060070B50E4B0E4CE41A53
:108CE000E408240439B944F002000C4923F02EFCB6
:108CF0006FF0150070BD0578094E0A4932782B4691
:108D000044F0030023F02FFC28463570FFF76EFB7C
:108D10000020EFE730320700A83207008074060019
:108D20005CD3002098740600002070470020704734
:108D300008B50D4B4FF480620021184601F068F928
:108D40000A4AC2600A4A02610A4A42610A4A8261C8
:108D50000A4AC2610A4A02620A4A42620A4A8262B4
:108D60000A4AC0F8402108BD60D300202D8C0200C3
:108D7000E98A02003D8A0200A589020009890200F1
:108D8000298D02002D8D02000D890200D98C020070
:108D90008278054B53F822301BB190F8FE10083052
:108DA00018476FF05E00704760D3002010B5084B85
:108DB000084800244FF4807221461C7001F028F905
:108DC000054B1C70054B1C70054B1C6010BD00BF93
:108DD00064D700206ED700206CD700206DD700200C
:108DE00060D7002070B5444C23780546DBB1434E74
:108DF00006F07EFA3268801A41F2883290420BD92E
:108E00003F4B40484049C01AC008000440F00200EF
:108E100023F09CFBFFF7CAFF2378032B1AD8DFE867
:108E200003F00212225CAA2D14D14FF4807237484D
:108E3000002101F0EDF8364A00231370354A137013
:108E40000123237006E0552D09D10223237006F07B
:108E50004FFA30602078031F5842584170BDAA2D48
:108E6000F8D00023EDE72B4E2B4B31784A1CD2B2C1
:108E7000062A5D543270EDD924481A7802705A7867
:108E800042709A78D9785D7982701A799B7942EA32
:108E9000012243EA0523C380A2F10903F62B11B294
:108EA00082800BD9164B17481C49C01AC008000411
:108EB00040F0020023F04EFB0523C2E7A1F10903B5
:108EC000DBB2002B80F8FE30114A0CBF04230323D1
:108ED0002370002313703370BCE70D490A78531CCC
:108EE000DBB20B7009490A44157291F8FE209A42D0
:108EF000B0D80423A5E700BF64D7002060D70020C6
:108F000030320700A8320700C97406006ED700206F
:108F10006DD700206CD7002065D70020E3740600D1
:108F200073B5224D2B78042B06463BD1204C45F2DD
:108F3000AA53ADF80030A3788DF80430A3882288B6
:108F4000ADF802201A0A8DF805208DF80630FFF7DB
:108F500097FC07216846FFF799FC94F8FE1004F18E
:108F60000800FFF793FCFFF7B3FCE3888342024657
:108F70000FD01048104C1149241AE408240444F07E
:108F8000020023F0F0FA00232B706FF0490002B0CA
:108F900070BD4FF480722146304601F011F8002078
:108FA0002870F4E76FF00A00F1E700BF64D70020F3
:108FB0006ED7002030320700A8320700FC7406008C
:108FC00008B5FFF7F3FEFFF75BFCFFF7B1FE064BBA
:108FD00006480749C01AC008000440F0030023F007
:108FE000B5FA002008BD00BF30320700A8320700E4
:108FF0002275060010B5084CC0430A44914208D0BF
:1090000011F8013B4340DBB254F8233083EA1020CF
:10901000F4E7C04310BD00BF407506000A46014694
:109020000020FFF7E7BF10B50446C06800F0C0FF9E
:10903000B4F90600002803DB0021C0B206F0D3F823
:10904000204610BD10B50446B0F9060000280BDB21
:109050000121C0B206F0C7F8A079002106F0DAF8C5
:1090600001236370184610BD0023FAE737B50446A4
:10907000C0680D4600F09CFFE27C237C9A420CBF46
:109080000322042212FB05F292B2A2801046019242
:1090900000F086FFE06030B1019A002100F0B8FFD7
:1090A000658003B030BDA0806080FAE7F0B4FF298E
:1090B000C1F38107C1F38112C1F30115477401F0B7
:1090C00003078CBF002101210170C168C47C067CAC
:1090D000C2740574877461B1A41B6142A2EB0505DB
:1090E00061416A426A41914203D0F0BC4188FFF776
:1090F000BDBFF0BC704700002DE9F04FC36889B0D8
:109100000546002B7ED006F0F8F86B69984201D234
:109110006861F8E7C01AB0F5967FF4D38A4BAF8840
:109120000FCB04AC84E80F002346002253F8044B15
:10913000D4F80085B8F1000F10D1D4F860150029DB
:109140000CDAD4F86415002908DAD4F86815002977
:1091500004DAD4F86C150029C0F2C4800132042A64
:10916000E4D1B5F90620794B53F822301F2B4FF08C
:10917000010665D9203B764F9E4064E048F20D0918
:1091800048F2060ACFE04FF4004220F813200133E2
:109190009BB220F813200023C4F80435C4F80C3522
:1091A000BEF1000F31D12822C4F80825B5F9061008
:1091B000664AC4F814357608C4F81035C4F820059A
:1091C000C4F82465C4F82835C4F82C3552F8212099
:1091D000C4F860250122C4F80025C4F81031A2604B
:1091E000D4F81031002BFBD00023C4F81031C4F8A0
:1091F00000354FF0FF33C4F8603500F0D9FE06F0BB
:109200007CF8686109B0BDE8F08F1422CCE7D4F88F
:1092100004E00398AEEB030E8645F8D355E0616891
:10922000C91A4145FBD36368A3EB0909019B5A4363
:10923000B9EBC20FE3D34FF496700CF0ECF81EE0DC
:109240009E404FF0A0472B78424A434C002B14BF5E
:1092500012231A23039314BF292346230293D368AE
:1092600043F08073D360236843F00103236015BF8C
:109270005823C3234FF047084FF09C080193E96837
:10928000AA88D4F8049001EB020A00238A45C6D0CC
:10929000082011F801BB00904FF0800CD4F804E0D6
:1092A000AEEB030EC645F9D36368D7F808E51BEAB1
:1092B0000C0F4EEA060EC7F808E5A8D0D4F804E073
:1092C0000298AEEB030E8645F8D3D7F80CE500986C
:1092D0004EEA060E0138C7F80CE54FEA5C0C009028
:1092E000DCD1D3E73E010436304600F059FE0028B9
:1092F0003FF437AF95F800E008211FFA88F2D30059
:1093000097429BB27FF63FAFEA6812F808B04FF081
:10931000800C0BEA0C02BEF1000F7FF42FAF48F275
:10932000130948F2080A002A08BFD14620F8139012
:1093300001339BB299424FEA5C0CEAD1083108F143
:10934000010889B2D9E700BF40790600EC7A06002F
:1093500000030050F0ED00E0001000E0437837B566
:1093600005460C463BB1B0F90600002803DB00219E
:10937000C0B205F038FF6B78EC805BB1E0B2012140
:10938000019005F030FF0198002103B0BDE83040A6
:1093900005F040BF03B030BDF8B5002504460F46C8
:1093A000457019460572C56045611646FFF77EFE99
:1093B00039462046FFF75AFE20463146FFF7CEFFDA
:1093C0002046F8BDF0B544889DF814708C421DD934
:1093D000047A44B112FB04F214FB03F314FB07F408
:1093E000120A1B0A270AC57C067CC468AE421DBF50
:1093F00004EB810100264E5501EB4101057C08BFBD
:1094000009194A55427C8B54837CCF54F0BD037AB2
:109410004A1CD2B2934270B51ED0013B13F0FF0339
:10942000C4680CD0FF291FBF110201F1FF31B1FB4D
:10943000F3F39BB204BF4FF6FF71B1FBF3F3254684
:109440008688291B89B28E4205D929785943091289
:1094500005F8011BF4E7027270BD8288C068002124
:1094600000F0D6BD05F0B4B805F0B4B813B50B4C98
:1094700023780BB900F090F82B232A22CDE9003293
:1094800007482D232C22002100F036FB00F07EFB44
:1094900023780BB90123237002B010BD6ED80020D1
:1094A00058CB0120BFF34F8F0549064BCA6802F421
:1094B000E0621343CB60BFF34F8F00BFFDE700BFF7
:1094C00000ED00E00400FA05292070470BF0C7BF4B
:1094D000F8B50C462F2C9DF81850079F06461146EC
:1094E00005DC631C047002D012B1012A12D0F8BD51
:1094F000012D0DD0022D01D025B9022120460CF0FE
:1095000003F9B57220460021BDE8F8400CF0FAB826
:109510002946F3E720460CF0F5F8391E204618BF1F
:109520000121BDE8F8400CF0F1B838B5044690F9D7
:1095300000002F281D4615DCA3B1022923610DD0A0
:1095400003290DD001290DD103210CF0E3F894F982
:1095500000002946BDE838400CF0DEB80521F4E7EC
:109560000621F2E738BD90F900002F2806DC431CE5
:1095700004D0003918BF01210CF0C8B8704708B5F5
:1095800090F900002F2804DC431C02D00CF0C0F836
:1095900008BD0020FCE7000010B5054C23782BB96E
:1095A000044902200CF0B5F90123237010BD00BF5F
:1095B0006FD80020993E040010B502200CF0B1F9DC
:1095C000064B1A681860044600219442596002D282
:1095D00004F014FF0444204610BD00BF70D80020E2
:1095E000014B1868704700BF70D800200A207047F0
:1095F0000CF08DB90CF089B902200CF090B9000084
:1096000007B50190022004F083FE044A019902206C
:1096100003B05DF804EB0CF080B900BF70D80020F7
:10962000FFF7EEBF022004F08FBE000008B5034B29
:1096300002201A6800230CF07AF908BD70D80020C7
:1096400070B5064602200CF06EF94FF47A720023D2
:1096500005460C463DF05CF80023328028464FF466
:109660007A7221463DF054F870BD10B50C460AF0F0
:109670008DFC2046BDE810400AF09ABC38B50C4677
:1096800005460AF07DFC28600AF08CFC206038BD9D
:10969000704708B523F026F822F014FE0028FBD10D
:1096A00064200BF0DCFEBDE8084002F058BE08B5AF
:1096B00002200CF036F908BD08B507480B460749EB
:1096C000401AC0080004064940F0010022F04BFF98
:1096D000BDE80840FFF7DDBFA832070030320700C1
:1096E0005079060013B50B46084C09490092641ADC
:1096F000E40824040246074944F0010022F03DFF3B
:1097000002B0BDE81040FFF7C4BF00BFA832070099
:10971000303207005679060008B507484FF400417B
:1097200022F050FD18B1054A7121FFF7C5FFBDE8D1
:10973000084022F087BC00BFAF960200887906007F
:1097400013B503780B2B12D8DFE803F0135C82A863
:10975000B111B9B9BD06D9DD047920460AF04EFB36
:1097600020460AF0F3FA002120460AF04FFB02B02F
:1097700010BD01200AF042FB01282ED100200AF082
:109780003DFB0128F3D000200CF0D8FA0028EEDDD4
:10979000012201A900200CF0D3F900200AF02EFBD1
:1097A00004460028EFD10CF0C3FA18BB9DF8041052
:1097B0000AF038FAE7E7012201A910460CF0C0F9D7
:1097C00001200AF01BFB40B901200CF0B1FA50B99E
:1097D0009DF8041001200AF025FA01200CF0AEFAE1
:1097E0000028E8DCCAE70128F7D19DF804100CF046
:1097F000F5F9F2E70128C6D19DF8041020460CF0D7
:10980000EDF9C0E703200AF0F9FA0128AFD00320F0
:109810000CF094FA0028AADD012201A903200CF023
:109820008FF903200AF0EAFA0028F0D103200CF0A7
:109830007FFA28B99DF8041003200AF0F3F9E6E74F
:109840000128E4D19DF8041003200CF0C7F9DEE7ED
:1098500004200AF0D3FA012889D004200CF06EFA13
:10986000002884DD012201A904200CF069F90420FC
:109870000AF0C4FA0028F0D104200CF059FA28B9F3
:109880009DF8041004200AF0CDF9E6E70128E4D1A0
:109890009DF8041004200CF0A1F9DEE71C4B1B6EB0
:1098A00003B198470FF06CF805F0D6FD5FE7194B50
:1098B0001B68002B3FF45BAF4068984757E7406850
:1098C0000CF010FB53E705200AF098FA01283FF44A
:1098D0004EAF05200CF032FA00287FF748AF012286
:1098E00001A905200CF02CF905200AF087FA0028C0
:1098F000EFD19DF8041005200AF094F9E9E7002063
:109900000CF01FF833E740680BF00CFF2FE700BFA7
:1099100068A6060094BB012070B54FF0804390B05C
:1099200000240126CDE90444CDE9024406948DF8D3
:109930001C40C3F8786526F0D1FAFFF7EDFE3B4BEB
:109940003B483C49C01AC0083B4B00041A6840F031
:10995000030022F0FFFD0CF0ADFA0BF083FD0BF0DD
:1099600073FC0BF095FF0322104623462146CDE9F8
:1099700000440BF0E9FF0BF0BFFC0BF0F9FC0320F7
:1099800005F042F90AF034FB23460546014603225E
:109990002046CDE900440BF0D7FF23460322294699
:1099A0003046CDE900440BF0CFFF08210DEB01005C
:1099B00005F07AFF9DF80F309DF80D201F490093A8
:1099C00008A89DF80E3001F04FF808A801F06CF8D7
:1099D000C1B208A80BF09EFC0C2104A80AF0E0FB21
:1099E00004A80BF09BFC2346032229460520CDE961
:1099F00000440BF0A9FF0AF0CDF90AF0E1FB07F0F3
:109A0000FFFCE5B228460AF0F9F910B928460AF039
:109A10009DF90134062CF4D10CF030FA0BF0D0F89B
:109A2000012801D108F060F810B070BD3032070095
:109A3000A8320700067A0600B4A10020167A0600B4
:109A400008B5084B1B6E03B198471EF08FFB04F05E
:109A50006BF8012801D11BF021FABDE808400CF099
:109A60001BBA00BF68A6060007B5FFF755FF194BE4
:109A700019481A49C01AC008000440F003000190B8
:109A800022F064FD02F052FC1549019822F05EFDBF
:109A900014480CF019F805F0EDFF01280DD002284C
:109AA0000DD010B910480CF00FF8104CFFF7C8FF9C
:109AB000237833B902F03CFCF8E70D48F3E70D4892
:109AC000F1E70AF0DFF90028F0D000200BF0B2FE39
:109AD000ECE700BF30320700A8320700277A060003
:109AE000317A0600407A0600547A060078D80020C1
:109AF000607A06006B7A06002DE9F3410C460025DA
:109B0000064600F8044B02249DF9208011461F46AA
:109B100022462B46CDE9004519F0BEFF2B462246D2
:109B2000394606F11800CDE9004519F0B5FF06F1F8
:109B30002C00CDE900452B462246414619F0ACFFEA
:109B4000204602B0BDE8F0410CF068B97FB50023B3
:109B5000ADF80E108DF8173020B90A4A0A48542182
:109B6000FFF7AAFD01220023CDE900230DF10E012C
:109B70000DF1170302200CF069F99DF8170007B0EA
:109B80005DF804FB727A06005EA55EA573B5174DFD
:109B900001240023CDE90034224628462A2119F069
:109BA0007BFF002300932246A5F1A4000194262107
:109BB00019F072FF02260023CDE900631A46A5F1D1
:109BC00090002E2119F068FF0023CDE900631A46AA
:109BD000A5F17C002F2119F05FFF23463246214674
:109BE000252002B0BDE870400BF08ABD98CB012063
:109BF000034603220148012119F056BF1CCB012066
:109C00004FF42071012019F071BD0A207047012026
:109C100019F060BD014B1878704700BF79D800205B
:109C2000014B1870704700BF79D8002010B50A4C5E
:109C30000A2019F02FFF0021204619F037FF1420C9
:109C400019F028FF2046012119F030FFBDE810402F
:109C50000A2019F01FBF00BFF4CA012010B5034C41
:109C6000204619F025FF0128FAD010BD08CB0120AD
:109C700038B50C4C00212046A4F1400519F016FF20
:109C8000C0212846FFF762FF00212846FFF75EFF4C
:109C90000121204619F00AFFFFF7E0FF024B0122E5
:109CA0001A7038BD98CB012079D80020F8B5154638
:109CB00006460C4619F002FB0E480F4F002119F022
:109CC000F5FE0D483146FFF741FF2544AC4209D16E
:109CD0000848012119F0EAFE842E09D0BDE8F840B9
:109CE000FFF7BCBF14F8011B3846FFF72FFFEDE765
:109CF000F8BD00BF98CB012058CB0120F8B5154620
:109D000006460C4619F0DAFA0F48104F002119F0F8
:109D1000CDFE31460D48FFF719FF0C480021FFF733
:109D200015FF2544C6B2AC4207D10748012119F0FE
:109D3000BDFEFFF793FF3046F8BD00213846FFF720
:109D400005FF04F8010BEEE798CB012058CB01206A
:109D500070B5154606460C4619F0B0FA10480021B9
:109D600019F0A4FE0D210F48FFF7F0FE310A0D484F
:109D7000FFF7ECFEF1B20B480A4EFFF7E7FE254471
:109D8000AC4207D10648012119F090FEBDE87040B1
:109D9000FFF764BF14F8011B3046FFF7D7FEEFE76B
:109DA00098CB012058CB012007B501228DF8071070
:109DB0000DF10701FFF7CCFF03B05DF804FB0000D5
:109DC00070B5154606460C4619F078FA134800217E
:109DD00019F06CFE1D211248FFF7B8FE310A104839
:109DE000FFF7B4FEF1B20E480D4EFFF7AFFE0C4880
:109DF0000021FFF7ABFE2544AC4207D10748012103
:109E000019F054FEBDE87040FFF728BF002130462E
:109E1000FFF79CFE04F8010BEEE700BF98CB012092
:109E200058CB012007B501220DF10701FFF7C8FF4C
:109E30009DF8070003B05DF804FB0000F8B5144678
:109E400005460E4619F03AFA0F48104F002119F056
:109E50002DFE0E210D48FFF779FE29460B48FFF72E
:109E600075FE0025A4B2ABB29C4207D8064801217A
:109E700019F01CFEBDE8F840FFF7F0BE715D3846F2
:109E8000FFF764FE0135EEE798CB012058CB0120A7
:109E9000F8B5144605460E4619F010FA1248134F4D
:109EA000002119F003FE1E211048FFF74FFE29463E
:109EB0000E48FFF74BFE0D480021FFF747FE002537
:109EC000A4B2ABB29C4207D80748012119F0EEFDBD
:109ED000BDE8F840FFF7C2BE00213846FFF736FE66
:109EE00070550135EDE700BF98CB012058CB01201C
:109EF000022119F049BC704770477047014819F0BA
:109F0000D7BD00BF1CCB01200B460146184600F010
:109F100001B8000010B5054C13462CB10A460146A5
:109F20000220AFF3008010BD2046FCE700000000D7
:109F300008B5074B044613B10021AFF30080054B71
:109F40001868836A03B19847204602F0EDF900BF14
:109F500000000000AC7B060070B50D4D0D4C641B7D
:109F6000A4100026A64209D10B4D0C4C3CF04CFD30
:109F7000641BA4100026A64205D170BD55F8043B11
:109F800098470136EEE755F8043B98470136F2E76B
:109F900078D1002078D1002078D1002084D1002011
:109FA000024B0146186800F08BB800BF10A30020D8
:109FB000024B0146186800F033B800BF10A3002020
:109FC0000A44914200F1FF3300D1704710B511F8F7
:109FD000014B03F8014F9142F9D110BD884210B5F1
:109FE00001EB020402D98442234607D8431EA14252
:109FF00008D011F8012B03F8012FF8E702440146BD
:10A000008A4200D110BD13F8014D02F8014DF7E767
:10A0100002440346934200D1704703F8011BF9E75D
:10A0200037B5002948D051F8043C0190002BA1F12C
:10A030000404B8BFE41801F08BFC204A01981368AF
:10A04000154633B96360146003B0BDE8304001F0D9
:10A0500085BCA3420BD921686218934204BF1A68D9
:10A060005B68636004BF521822602C60ECE71A46FC
:10A070005B680BB1A342FAD911685518A5420BD100
:10A08000246821445418A3421160DDD11C685B6828
:10A09000536021441160D7E702D90C230360D3E752
:10A0A000256861198B4204BF19685B68636004BF4F
:10A0B000491921605460C7E703B030BD7CD8002047
:10A0C000F8B5CD1C25F0030508350C2D38BF0C253F
:10A0D000002D064601DBA94203D90C233360002082
:10A0E000F8BD01F035FC21490A6814469CB9204F9F
:10A0F0003B6823B92146304600F0A6FC386029466B
:10A10000304600F0A1FC431C23D10C2333603046C1
:10A1100001F024FCE3E723685B1B17D40B2B03D966
:10A1200023601C44256004E06368A2420CBF0B60FE
:10A130005360304601F012FC04F10B00231D20F0A7
:10A140000700C21ACCD01B1AA350C9E72246646884
:10A15000CCE7C41C24F00304A042E3D0211A30460B
:10A1600000F072FC0130DDD1CFE700BF7CD80020C9
:10A1700080D800202DE9FF4755EC104B002D0E46EE
:10A1800019462B46BBBF05F100431D4600232D2376
:10A190000B700D9BDDF830A0914623F02008BCBF6A
:10A1A00022461446B8F1460F05D0B8F1450F00D14C
:10A1B0000136022100E0032103AB019302AB0093BF
:10A1C00045EC104B5346324600F08AFDB8F1470F7C
:10A1D000074602D119F0010F22D0B8F1460F07EB64
:10A1E000060910D13B78302B0AD1002200232046EB
:10A1F00029463CF0FDF918B9C6F10106CAF800601D
:10A20000DAF80030994400220023204629463CF029
:10A21000EFF908B1CDF80C903022039B4B4507D3E2
:10A22000039B0E9ADB1B3846136004B0BDE8F08731
:10A23000591C03911A70F0E7F7B503460029B8BF1F
:10A24000494203F8022BB4BF2D222B220929427068
:10A250002ADD0DF10704A4460A27A6460A4691FB0B
:10A26000F7F607FB16153035632A04F1FF340EF8B4
:10A27000015C3146F1DC3031AEF1020504F8011C1D
:10A28000441C294661450AD30DF10902A2EB0E02D6
:10A29000654588BF00221344181A03B0F0BD11F8B9
:10A2A000012B04F8012FEDE7302330318370C170AA
:10A2B000031DF1E72DE9F04F2DED028B8DB00C461B
:10A2C000DDF8608016461F46054601F0E7FAD0F833
:10A2D00000A0504600F0E8FB00230A932368059392
:10A2E000D8F8003094F818B0073323F0070303F1CF
:10A2F0000802C8F80020D3E90023C4E91223D4E9F6
:10A30000128929F000430793CDF8188008EE100A4F
:10A310009F4BDDE906014FF0FF323CF09BF988BB13
:10A32000DDE906019A4B4FF0FF323CF075F948BB6E
:10A3300000220023404649463CF064F910B12D2329
:10A3400084F84330934B9448BBF1470F94BF984631
:10A35000804603232361059B23F0040222604FF013
:10A360000009009733460BAA2146284600F0D8F989
:10A37000013040F090804FF0FF300DB0BDEC028B0B
:10A38000BDE8F08F42464B46404649463CF062F9F4
:10A3900040B14B46002BBCBF2D2384F843307F488F
:10A3A0007F4BD1E763680BF0DF0206925A1C3FD166
:10A3B00006236360059B616843F480620023039376
:10A3C0000AABCDE901B309AB49EC108B00932260D5
:10A3D0000DF123032846FFF7CDFE069B0999472B75
:10A3E000804608D1C81C02DB6368994241DDABF1AD
:10A3F000020B5FFA8BFBBBF1650F20D801395A467F
:10A4000004F150000991FFF717FF0A9A1318012A67
:10A410008146236102DC2268D20701D50133236122
:10A420009DF82330002B9CD02D2384F8433098E7EF
:10A43000069A472ABED1002BBCD10123B9E7BBF154
:10A44000660F18D1002963680BDD216113B92268FA
:10A45000D00702D501330B442361A1654FF00009F9
:10A46000DEE713B92268D20701D50233F4E70123EE
:10A47000F2E74FF0670B0A9B994205DB23682161E5
:10A48000D807EAD54B1CE7E70029D4BFC1F1020287
:10A4900001221344E0E723685A0507D423694246A2
:10A4A00031462846B84701302CD164E7BBF1650F2F
:10A4B00040F2E080D4E91201002200233CF098F839
:10A4C000002834D0374A012331462846B8470130A6
:10A4D0003FF451AFDDE909239A4202DB2368D80734
:10A4E00010D518EE103A524631462846B84701308A
:10A4F0003FF441AF4FF0000804F11A090A9B013BF9
:10A50000434509DC23689B0700F10581E0680B9B4C
:10A510009842B8BF184630E701234A4631462846DC
:10A52000B84701303FF427AF08F10108E6E7099B7F
:10A53000002B39DC1B4A012331462846B84701303D
:10A540003FF419AFDDE90923134302D12368D9078A
:10A55000D8D518EE103A524631462846B847013051
:10A560003FF409AF4FF0000904F11A0A099B5B425E
:10A570004B4501DC0A9B92E70123524631462846AF
:10A58000B84701303FF4F7AE09F10109EEE700BF2B
:10A59000FFFFEF7FB07B0600B47B0600BC7B0600AC
:10A5A000B87B0600526D06000A9AA36D9A42A8BFB6
:10A5B0001A46002A914637DC4FF0000B29EAE97968
:10A5C00004F11A02A36D0593A3EB09035B4533DC89
:10A5D000DDE909239A423BDB2368DA0738D40A9A7B
:10A5E000059B0999D31AA2EB01099945A8BF994681
:10A5F000B9F1000F35DC4FF0000829EAE97904F1E0
:10A600001A0ADDE909239B1AA3EB090343457FF7E7
:10A6100079AF0123524631462846B84701303FF40E
:10A62000AAAE08F10108ECE7134631464246284637
:10A63000B8470130C0D19EE6012331462846059235
:10A64000B84701303FF497AE059A0BF1010BB9E71B
:10A6500018EE103A524631462846B8470130BED16E
:10A6600089E6059A4B46424431462846B8470130B0
:10A67000C1D180E60A9A012A01DCDB0738D5012323
:10A68000424631462846B84701303FF474AE18EED2
:10A69000103A524631462846B84701303FF46BAE77
:10A6A000D4E91201002200233BF0A2FFD8B90A9B93
:10A6B00008F10102013B31462846B84701300ED16E
:10A6C00059E60123524631462846B84701303FF447
:10A6D00052AE08F101080A9B013B4345F1DC4B46B1
:10A6E00004F15002DCE64FF0000804F11A0AF2E728
:10A6F00001234246DFE701234A4631462846B84750
:10A7000001303FF438AE08F10108E3680B995B1A99
:10A710004345F0DCFAE64FF0000804F11909F4E7CC
:10A720002DE9F047164699468A680B69DDF82080C6
:10A730009342B8BF1346336091F8432007460C4656
:10A740000AB1013333602368990642BF336802338C
:10A750003360256815F0060506D104F1190AE3688F
:10A7600032689B1AAB4226DC94F84320131E226801
:10A7700018BF012392062BD404F143024946384600
:10A78000C04701301ED02368E568326803F0060335
:10A79000042B08BFAD1AA36822690CBF25EAE57532
:10A7A00000259342C4BF9B1AED1800261A34B54207
:10A7B0001AD1002008E00123524649463846C047D6
:10A7C000013003D14FF0FF30BDE8F0870135C6E717
:10A7D000E1185A1C302081F84300224494F84510B7
:10A7E00082F843100233C7E7012322464946384620
:10A7F000C0470130E6D00136D9E700002DE9FF4718
:10A800000C469146277E0C99782F80469A4604F193
:10A81000430207D8622F0AD8002F00F0D880582FA3
:10A8200000F0A38004F1420684F842703AE0A7F1F8
:10A830006303152BF6D801A050F823F095A8020069
:10A84000A9A8020025A8020025A8020025A8020048
:10A8500025A80200A9A8020025A8020025A8020038
:10A8600025A8020025A80200B5A90200D9A8020067
:10A8700097A9020025A8020025A80200D7A9020076
:10A8800025A80200D9A8020025A8020025A80200D8
:10A890009FA902000B681A1D1B680A6004F142069A
:10A8A00084F842300123A3E0256808682E0600F1F1
:10A8B00004030AD505680B60002D03DA2D236D42D1
:10A8C00084F843305E480A2319E015F0400F05680C
:10A8D0000B6018BF2DB2EFE70B682568181D0860E4
:10A8E000280601D51D6802E06906FBD51D8854487D
:10A8F0006F2F0CBF08230A23002184F843106668D9
:10A90000A660002EA2BF216821F0040121600DB9CC
:10A91000002E4DD01646B5FBF3F103FB1157C75D72
:10A9200006F8017D2F46BB420D46F4D9082B0BD10A
:10A930002368DF0708D5236961689942DEBF3023A9
:10A9400006F8013C06F1FF36921B2261CDF800A00B
:10A950004B4603AA21464046FFF7E2FE01304CD1A8
:10A960004FF0FF3004B0BDE8F087354884F84570FB
:10A9700023680E681F0656F8045B0E6014D5D907CD
:10A9800044BF43F0200323601DB9236823F0200354
:10A9900023601023B0E7236843F02003236078236B
:10A9A000284884F84530E3E75E0648BFADB2E6E7E5
:10A9B0001646BBE70B68266860691D1D0D603506ED
:10A9C0001B6801D5186002E07106FBD518800023D2
:10A9D00023611646BAE70B681A1D0A601E68626892
:10A9E0000021304600F064FF08B1801B606063689E
:10A9F0002361002384F84330A8E72369324649469F
:10AA00004046D0470130ABD023689B0713D4E068A1
:10AA1000039B9842B8BF1846A4E701233246494633
:10AA20004046D04701309BD00135E36803995B1A5B
:10AA3000AB42F2DCEBE7002504F11906F5E700BFB5
:10AA4000C07B0600D17B060038B5064D00230446C6
:10AA500008462B6001F05AFC431C02D12B6803B15D
:10AA6000236038BD8CB601200EB400B59CB01DAB80
:10AA7000029006906FF0004109480791049109493E
:10AA800053F8042B05910068019302A901F0E4FA40
:10AA9000029B00221A701CB05DF804EB03B07047F3
:10AAA00010A300200802FFFF034613F8012B002A21
:10AAB000FBD1181A013870472DE9F0433B4E86460A
:10AAC0008C4660461CF8014BA55D15F00805F8D1D1
:10AAD0002D2C34D19CF800404FF0010800F1020CFD
:10AAE000002B5ED0102B0CD1302C0AD19CF800002A
:10AAF00000F0DF0058284FD19CF8014010230CF1E2
:10AB0000020C4FF0FF370025B7FBF3F703FB07F903
:10AB10006FEA09092846A4F13006092E18D83446F0
:10AB2000A34224DD002D1FDB87421DD301D1A145A7
:10AB30001ADB00FB034001251CF8014BEBE72B2C33
:10AB400008BF9CF80040A84608BF00F1020CC7E708
:10AB5000A4F14106192E01D8373CE1E7A4F16106C2
:10AB6000192E04D8573CDBE74FF0FF35E4E7002D02
:10AB700007DA2223CEF800304FF0FF3042B9BDE8AB
:10AB8000F083B8F1000F00D04042002AF7D00DB199
:10AB90000CF1FF311160F2E73024002BB1D1082312
:10ABA000AFE7302CA2D00A23ABE700BFE37B06005F
:10ABB000FFF782BF13460A46014602480068FFF7C6
:10ABC0007BBF00BF10A300202DE9F74F03690C697C
:10ABD000A3420746C0F28180013C01F1140800F154
:10ABE000140505EB8403019358F8243055F824200C
:10ABF00001339A424FEA840B08EB8409B2FBF3F667
:10AC000031D34FF0000E4046AC46F24650F8042BCC
:10AC100093B206FB03E34FEA134E9BB2AAEB030386
:10AC2000120CDCF800A006FB02E213FA8AF34FEAEA
:10AC3000124E1FFA82FADCF80020CAEB124202EB35
:10AC400023429BB243EA024381454CF8043B4FEA5E
:10AC5000224ADBD255F80B302BB9019B043B9D42B5
:10AC60001A462ED33C61384601F0A9F8002824DBAF
:10AC7000013628464FF0000C58F8042BD0F800E0BD
:10AC800093B2ACEB0303120C13FA8EF3C2EB1E4229
:10AC900002EB23429BB243EA0243C14540F8043B26
:10ACA0004FEA224CE8D255F8242005EB840322B960
:10ACB000043B9D421A460AD33C61304603B0BDE8CE
:10ACC000F08F1268043B002ACCD1013CC7E7126820
:10ACD000043B002AF0D1013CEBE70020EEE7000046
:10ACE0002DE9F04F2DED028B57EC106B95B0456AB6
:10ACF000DDF880800591CDE90267044609920F9343
:10AD00003DB91020FFF74CF9C0E9015560620560BC
:10AD1000C560636A196851B15A684A60012393405B
:10AD20008B60204600F054FE636A00221A603B1ECE
:10AD3000B9BF23F0004303930023C8F80030DDF8C7
:10AD40000C90B74BBCBF0122C8F8002033EA0903BE
:10AD50001BD10F9A42F20F731360C9F313033343ED
:10AD600000F07585219B63B9AE4B25E0AE4B009397
:10AD70000833219A1360009815B0BDEC028BBDE832
:10AD8000F08FA84B00930333F3E79DED027B002285
:10AD900051EC170B00238DED0A7B3BF029FC80461C
:10ADA00060B10F9A01231360219B002B00F04C85AA
:10ADB0009E4B219A1360013B0093DCE79DED0A0B4B
:10ADC00012AA13A9204601F08CF8C9F30A5582464D
:10ADD000002D7ED00B9BCDF84080C3F31303DDE93B
:10ADE0000A6743F07F5747F44017A5F2FF35904BB1
:10ADF0000022304639463AF0DBFF83A3D3E9002333
:10AE00003BF08EF982A3D3E900233AF0D3FF064644
:10AE100028460F463BF01AF97FA3D3E900233BF005
:10AE20007FF902460B46304639463AF0C3FF0646E4
:10AE30000F463BF025FC0022814600233046394670
:10AE40003BF0E0FB48B148463BF000F932463B4658
:10AE50003BF0CEFB08B909F1FF39B9F1160F56D80E
:10AE6000744B03EBC903D3E90023DDE90A013BF08E
:10AE7000C9FB00284DD009F1FF3900230E93129B26
:10AE80005D1B6B1E049343BF0023C5F101080493AF
:10AE90004FF00008B9F1000F3DDB049BCDF8349072
:10AEA0004B44049300230693059B092B00F29A80E0
:10AEB000052BC4BF043B0593059BA3F10203CCBF44
:10AEC00000250125032B00F29980DFE803F02C7D9B
:10AED0007B89DDE912531D4405F23243202BC1BFAB
:10AEE000C3F1400305F2124009FA03F326FA00F019
:10AEF000DABFC3F1200306FA03F018433BF096F8DB
:10AF000001230646A1F1F877013D10936FE7012375
:10AF1000B4E70E90B3E7C9F1000306930023A8EB52
:10AF200009080D93C0E700230893099B002B00F349
:10AF300085804FF0010BCDF804B05B46CDF824B00E
:10AF4000666A00227260042202F11400984271685D
:10AF50007AD9204600F008FD636A30601B680093D0
:10AF6000019B0E2B00F2F580002D00F0F280B9F16C
:10AF7000000F7DDD2F4A09F00F0302EBC30393EDB1
:10AF8000007B19F4807F4FEA2917B0EE478AF0EE74
:10AF9000678A5DD0284BDDE90A01D3E908233BF03D
:10AFA000E9F9CDE9020107F00F070325224E002F32
:10AFB00050D1DDE9020153EC182B3BF0DBF9CDE970
:10AFC00002016FE00123AFE700230893099B09EB1F
:10AFD000030B0BF10103012B0193B8BF0123AFE772
:10AFE0000123F2E701250023059308954FF0FF3B6D
:10AFF0000022CDF804B012230992A1E7012308939F
:10B00000F4E700BFAFF3008061436F63A787D23FCF
:10B01000B3C8608B288AC63FFB799F501344D33F47
:10B020000000F07FEC7C0600E37C0600536D060018
:10B030000000F83F187D0600F07C0600DDF824B023
:10B04000CDF804B05B467BE70131716052007BE7CD
:10B050000225ABE7F90708D551EC180BD6E9002318
:10B060003BF05EF841EC180B01357F1008369EE787
:10B0700000F0AB80C9F10006AA4BAB4F06F00F02FF
:10B0800003EBC203D3E90023DDE90A013BF048F8F2
:10B09000CDE90201361100230225002E40F08A80FE
:10B0A000002B8CD10E9B002B00F09180DDE9026714
:10B0B0009E4B0022304639463BF0A4FA002800F0AF
:10B0C0008680019B002B00F08280BBF1000F3CDDED
:10B0D00009F1FF3307930022954B304639463BF088
:10B0E0001FF8CDE902010135CDF830B0DDE9026786
:10B0F00028463AF0ABFF32463B463BF011F88D4B09
:10B1000000223AF057FEA1F15073CDE902010393FA
:10B110000C9B002B60D1884B0022304639463AF018
:10B1200047FEDDE9022306460F463BF089FA002878
:10B1300040F09982DDE90221304601F100433946B1
:10B140003BF060FA002840F08B82DDE90A23CDE96C
:10B150000223139B002BC0F25B81B9F10E0F00F3A9
:10B160005781704B03EBC90393ED007B099BB0EE55
:10B17000478AF0EE678A002B80F2E280019B002B69
:10B1800000F3DE8040F06C826B4B51EC170B002219
:10B190003AF0C6FFDDE902233BF048FA019E37464C
:10B1A000002840F04282009D312305F8013B09F15F
:10B1B00001093EE2F20705D5D7E900233AF0B0FFD6
:10B1C000013501237610083767E702256AE7019BFE
:10B1D000CDF81C900C9389E700990C980C9A514B70
:10B1E0009DED027B014402910899B0EE478AF0EE92
:10B1F000678A03EBC20353E90223002945D04F4974
:10B2000000203BF0B7F853EC182B3AF0D1FD009D2D
:10B2100041EC180B394630463BF032FA0C903AF0CC
:10B2200015FF02460B46304639463AF0C1FD0C9BED
:10B23000303305F8013B53EC182B06460F463BF024
:10B24000E1F9002865D132463B46384900203AF002
:10B25000AFFD53EC182B3BF0D5F9002840F0B88037
:10B26000029B9D423FF471AF314B51EC180B002211
:10B270003AF056FF2E4B41EC180B0022304639466F
:10B280003AF04EFF06460F46C4E751EC170B3AF072
:10B2900047FF029B009D0C9341EC180B394630464A
:10B2A0003BF0EEF911903AF0D1FE02460B463046E3
:10B2B00039463AF07DFD119B303305F8013B029B86
:10B2C0009D4206460F464FF0000225D11B4B51EC24
:10B2D000180B3AF06FFD02460B46304639463BF0FC
:10B2E000AFF9002874D153EC182B144900203AF020
:10B2F0005FFD02460B46304639463BF083F9002895
:10B300003FF423AF0C9D6B1E0C9315F8013C302BC2
:10B31000F8D0DDF81C9049E0054B3AF001FF0646F5
:10B320000F46BBE7187D0600F07C06000000F03FEA
:10B330000000244000001C40000014400000E03FDA
:10B34000DDE90267009D53EC182B304639463BF08F
:10B3500011F83BF095F980463AF078FE53EC182B43
:10B360003AF0DEFE02460B463046394608F130061A
:10B370003AF01EFD05F8016B009E019FAE1BB7421F
:10B3800002460B4637D13AF015FD53EC182B064612
:10B390000F463BF055F9C8B953EC182B30463946E7
:10B3A0003BF026F910B118F0010F0FD1204651469D
:10B3B00000F00EFB00232B700F9B09F101001860B9
:10B3C000219B002B3FF4D7AC1D60D4E4CDF81C903A
:10B3D0002B461D4613F8012D392A08D1009A9A42AE
:10B3E000F7D1079A00990132079230220A701A7831
:10B3F00001321A708DE79E4B00223AF091FE002236
:10B40000002306460F463BF0F3F800289BD0CDE71B
:10B41000089A002A00F0C680059A012A00F3AA8043
:10B42000109A002A00F0A28003F23343069E45469C
:10B43000049A01211A4420469844049200F06DFBBE
:10B440000746002D0BDD049B002B08DDAB42049A60
:10B45000A8BF2B46A8EB0308ED1AD31A0493069B4A
:10B46000FBB1089B002B00F0A180002E11DD3946B6
:10B470003246204600F0F6FB52460146074620467B
:10B4800000F054FB51460790204600F0A1FA079BBC
:10B490009A46069B9A1B04D05146204600F0E2FBD8
:10B4A00082460121204600F038FB0D9B002B06460A
:10B4B0007EDD1A460146204600F0D4FB059B012B99
:10B4C000064678DD00230693336906EB830318698B
:10B4D00000F0D3FAC0F12000049B184410F01F00C4
:10B4E00000F08880C0F12003042B40F38180C0F17C
:10B4F0001C00049B0344804405440493B8F1000FEE
:10B5000005DD51464246204600F0FAFB8246049B88
:10B51000002B05DD31461A46204600F0F1FB0646B9
:10B520000E9B002B68D03146504600F048FC0028A6
:10B5300062DA002351460A22204600F060FA089B96
:10B5400009F1FF398246002B00F08881394600233B
:10B550000A22204600F053FABBF1000F074600F321
:10B560008F80059B022B40F38B804DE0129BC3F133
:10B5700036035BE7019B5E1E069BB342BFBF069B83
:10B580000696F21A0D9BB6BF9B189E1B0D93019B4E
:10B59000B8BF0026002BB5BFA8EB0305019B002315
:10B5A000454645E7069E089F45464AE7069A73E7E3
:10B5B000059B012B18DC029BB3B9039BC3F3130358
:10B5C000A3B9039B23F000431B0D1B052BB1049B68
:10B5D0000133049308F10108012306930D9B002B0E
:10B5E0007FF472AF012077E70023F6E7029BF4E7D0
:10B5F00084D018461C307CE7019B002B3ADC059B6D
:10B60000022B37DDDDF804B0BBF1000F0DD1314660
:10B610005B460522204600F0F2F9014606465046F8
:10B6200000F0CDFB00283FF7BEAD099B009D6FEAFF
:10B6300003094FF000083146204600F0C9F9002FF9
:10B640003FF4B4AEB8F1000F05D0B84503D0414681
:10B65000204600F0BDF93946204600F0B9F9A5E6CC
:10B6600000263746E1E70C9EDDF81C9037469AE548
:10B6700000002440089BDDF804B0002B00F0F580AA
:10B68000002D05DD39462A46204600F039FB0746E5
:10B69000069B002B55D07968204600F065F93A6981
:10B6A00002320546920007F10C010C30FEF788FCCF
:10B6B00001222946204600F023FB009B0133019321
:10B6C000009B5B440793029B03F00103B84606937B
:10B6D0000746019B3146504603F1FF3BFFF774FAE2
:10B6E00003463033029041465046089300F067FB12
:10B6F0003A4604903146204600F07DFBC268089B24
:10B70000054602BB0146504600F059FB089B024625
:10B7100029462046CDE9083200F05AF9059B099ADE
:10B72000019D43EA0201069B0B43089B0DD1392B77
:10B7300027D0049A002A01DD029B31338BF80030B8
:10B7400079E73846B9E70122E2E70499002904DBEA
:10B75000059801430698014320D1002AEEDD5146A9
:10B7600001222046019300F0CBFA3146824600F0D8
:10B7700026FB0028019B02DCE0D1DA07DED5392B5D
:10B78000DAD139238BF800302B461D46013B15F8E2
:10B79000012C392A50D001321A704CE7002A03DDFF
:10B7A000392BEED00133C9E7019A079902F8013C21
:10B7B0008A422AD0514600230A22204600F01FF96F
:10B7C000B84582464FF000034FF00A02414620463A
:10B7D00007D100F014F980460746019B013301931D
:10B7E00077E700F00CF93946804600230A2220460C
:10B7F00000F005F90746F0E7BBF1000F009ACCBF57
:10B800005D46012515444FF00008514601222046AF
:10B81000019300F075FA3146824600F0D0FA002814
:10B82000B2DC02D1019BDB07AED42B461D4613F8D8
:10B83000012D302AFAD0FEE6009A9A42A5D1312392
:10B8400009F101091370F6E6124BFFF7B5BA219B17
:10B85000002B7FF48BAA104BFFF7AEBABBF1000FA1
:10B8600003DC059B022B3FF7CFAE009D31465046CF
:10B87000FFF7AAF900F1300305F8013B009AAA1A74
:10B880009345B9DD514600230A22204600F0B7F85F
:10B890008246EBE7526D0600E37C060000487047E5
:10B8A00064A4002000000000000000000000000070
:10B8B00001F0FF01102A2BDB10F0070F08D010F861
:10B8C000013B013A8B422DD010F0070F42B3F6D165
:10B8D000F0B441EA012141EA014122F007047FF07E
:10B8E00000070023F0E80256083C85EA010586EAD5
:10B8F000010685FA47F5A3FA87F586FA47F6A5FA11
:10B9000087F68EB9EED1F0BC01F0FF0102F007021C
:10B9100032B110F8013B013A83EA010313B1F8D1C7
:10B920000020704701387047002D06BF35460338A8
:10B93000073815F0010F07D1013015F4807F02BFE1
:10B94000013015F4C03F0130F0BC0138704700BF32
:10B95000014800F081BC00BF90B60120014800F012
:10B960007CBC00BF90B6012070B5466A04460D4607
:10B970003EB91020FEF714FBC0E901666062066064
:10B98000C660666AF36883B1636ADB6853F82500B2
:10B99000B8B9012101FA05F6721D9200204600F0A7
:10B9A000F0FA60B1C0E901560EE0212204212046E0
:10B9B00000F0E7FA636AF060DB68002BE4D1002056
:10B9C00070BD026843F825200023C0E90333F7E780
:10B9D00070B5466A05460C463EB91020FEF7E0FAFF
:10B9E000C0E9016668620660C6603CB16B6A626865
:10B9F000DB6853F82210216043F8224070BD2DE926
:10BA0000F0410E69074698460C4601F114000023E8
:10BA10000568A9B202FB01814FEA114C2D0C02FB13
:10BA200005C589B2013301EB05419E4240F8041B74
:10BA30004FEA1548ECDCB8F1000F1BD0A368B34205
:10BA400012DC616838460131FFF78EFF226902324D
:10BA500004F10C01054692000C30FEF7B1FA2146C4
:10BA60003846FFF7B5FF2C4604EB86030136C3F8D2
:10BA7000148026612046BDE8F081030C1B04D3B975
:10BA80000004102310F07F4F04BF0002083310F0B1
:10BA9000704F04BF0001043310F0404F04BF80001A
:10BAA0000233002805DB10F0804F03F1010308BFCB
:10BAB0002023184670470023E4E7036813F00702C9
:10BAC00001460BD0DA0724D4980749BF5B089B08CE
:10BAD00001200B605CBF0B600220704798B2B0B9C8
:10BAE0001B0C102013F0FF0F04BF1B0A08301A07AD
:10BAF00004BF1B0904309A0704BF9B080230DA0711
:10BB000003D45B0800F1010005D00B6070471046BC
:10BB1000E8E7002070472020704710B50C4601214F
:10BB2000FFF722FF01224461026110BD2DE9F04FB1
:10BB300015460A692B699A42B8BF0B460C46BCBF32
:10BB40002C461D462769D5F81090A368616807EB5D
:10BB50000906B342B8BF013185B0FFF705FF00F118
:10BB6000140101EB86080B46002243451DD304F166
:10BB7000140305F1140203EB870702EB8903029318
:10BB80003B1B153B23F00303043304F11505AF42BF
:10BB900038BF04230193029B0392934208D8002EDE
:10BBA0005ADC066105B0BDE8F08F43F8042BDCE7F2
:10BBB000B2F800A0BAF1000F24D004F1140E8946A7
:10BBC0004FF0000C5EF8045BD9F800B0ABB21FFA7E
:10BBD0008BFB0AFB03B34FEA154BD9F800506344C3
:10BBE0004FEA154C0AFB0BC505EB13459BB243EA24
:10BBF0000543774549F8043B4FEA154CE2D8019BD1
:10BC000041F803C0039BB3F802900432B9F1000F6E
:10BC100020D00B6804F1140C8E464FF0000ABCF8DB
:10BC20000050BEF802B009FB05B5AA449BB243EA36
:10BC30000A434EF8043B5CF8043BBEF800501B0C72
:10BC400009FB035303EB1A4367454FEA134AE6D84F
:10BC5000019D4B5104319EE758F8043D002BA0D1C3
:10BC6000013E9CE72DE9F843154612F00302064613
:10BC70000F4607D0214C013A002354F82220FFF749
:10BC8000BEFE0746AD1035D0746A3CB91020FEF7F1
:10BC900087F9C0E9014470620460C460D6F824806A
:10BCA000D8F808404CB940F271213046FFF735FF13
:10BCB0000023C8F80800044603604FF00009EB07B2
:10BCC0000AD5394622463046FFF730FF39468046CE
:10BCD0003046FFF77DFE47466D100BD0206838B91F
:10BCE000224621463046FFF721FF2060C0F8009031
:10BCF0000446E4E73846BDE8F88300BFE07D06006F
:10BD00002DE9F0470C464968236903EB6218A368E4
:10BD1000074691464FEA621A08F10106B3423FDB3B
:10BD20003846FFF721FE0023054600F1140100F11B
:10BD300010021846534536DB20692AEAEA7A04F1F4
:10BD4000140319F01F0901EB8A0103EB800C2ED0BC
:10BD5000C9F1200E8A460022186800FA09F0024351
:10BD60004AF8042B53F8042B9C4522FA0EF2F3D820
:10BD7000ACEB0403153B23F00303043304F115007B
:10BD8000604588BF0423CA500AB108F10206013E8B
:10BD900038462E612146FFF71BFE2846BDE8F08796
:10BDA00001315B00BAE742F8040F0133C2E70439FE
:10BDB00053F8042B41F8042F9C45F9D8E7E730B538
:10BDC00002690C69121B0ED100F11403143103EB4C
:10BDD000840001EB840150F8045D51F8044DA54244
:10BDE00003D005D30122104630BD8342F3D3FAE7D6
:10BDF0004FF0FF32F7E72DE9F84F0C4606461146A3
:10BE000020461746FFF7DBFF051E08D129463046BE
:10BE1000FFF7AAFD0123C0E90435BDE8F88FA4BFF0
:10BE20003B46274630467968A6BF1C4600250125BB
:10BE3000FFF79AFD3E69C560256907F1140104F119
:10BE4000140900F1140E07F1100201EB860C09EB46
:10BE50008505F246002759F8043B52F804BF1FFA43
:10BE600083F817FA8BF71B0CA7EB0808C3EB1B43EF
:10BE700003EB28431FFA88F81F144D4548EA034393
:10BE80004AF8043BE7D82B1B153B23F0030304338C
:10BE90001534A54238BF0423194473449E460D4609
:10BEA00065450ED30CF10302521A22F00302033946
:10BEB0008C4538BF00221A4452F8043D7BB106611C
:10BEC000ABE755F8048B17FA88F4221402EB1842FA
:10BED000A4B244EA02444EF8044B1714E0E7013ED2
:10BEE000EAE72DE9F7438946012157EC106B9046AC
:10BEF000FFF73AFDC7F30A550446C7F3130335BBF2
:10BF0000002E019328D068460096FFF7D6FD0099D1
:10BF100000B3019AC0F1200302FA03F30B43C240BD
:10BF200063610192019BA361002B14BF02220122D5
:10BF30002261D5B1A5F233450544C9F80050C0F1DE
:10BF40003500C8F80000204603B0BDE8F08343F494
:10BF50008013D5E76161E5E701A8FFF7AEFD019B1E
:10BF60006361012222612030E3E704EB8203A0F247
:10BF70003240C9F800001869FFF77FFDC0EB42109E
:10BF8000DFE713B54A4311460192FEF799F80446DC
:10BF900018B1019A0021FEF73BF8204602B010BD0F
:10BFA0002DE9F0478E689E4282460C4690461F4619
:10BFB00038D88A8912F4906F32D025680969A5EBC8
:10BFC0000109656905EB450505EBD57501334B4462
:10BFD0006D109D4238BF1D46530531D52946FEF7E9
:10BFE0006FF8064650B90C23CAF80030A38943F015
:10BFF0004003A3814FF0FF30BDE8F08721694A4636
:10C00000FDF7DEFFA38923F4906343F08003A3814F
:10C01000266165614E44A5EB09052660A5603E4694
:10C02000BE4200D93E46324620684146FDF7D6FF63
:10C03000A36822689B1B3244A36022600020DBE7D8
:10C040002A4600F01DF906460028E1D12169504634
:10C05000FDF7E6FFC7E700002DE9F04F98468B8912
:10C060001B069DB007460D4614460ED50B6963B9F5
:10C070004021FEF725F82860286120B90C233B6099
:10C080004FF0FF30D1E040236B6100230993202360
:10C090008DF82930CDF80C803023DFF8A8818DF899
:10C0A0002A304FF0010923469A4613F8012B0AB1B2
:10C0B000252AF9D1BAEB040B0BD05B462246294660
:10C0C0003846FFF76DFF013000F0AA80099A5A4404
:10C0D00009929AF80030002B00F0A28000234FF064
:10C0E000FF32CDE905230AF1010A049307938DF885
:10C0F00053301A935446052214F8011B5148FFF798
:10C10000D7FB049AD8B9D00644BF20238DF853300A
:10C11000110744BF2B238DF853309AF800302A2B97
:10C1200015D0079A544600204FF00A0C214611F80A
:10C13000013B303B092B4ED9B0B1079214E0A0EB84
:10C14000080309FA03F313430493A246D2E7039BBF
:10C15000191D1B680391002BBBBF5B4242F002021A
:10C1600007930793B8BF049223782E2B0CD16378E2
:10C170002A2B35D1039B1A1D1B680392002BB8BFD5
:10C180004FF0FF3302340593DFF8C8A02178032273
:10C190005046FFF78DFB40B14023A0EB0A0003FAA5
:10C1A00000F0049B03430134049314F8011B264858
:10C1B0008DF828100622FFF77BFB002838D0234B90
:10C1C0001BBB039B073323F0070308330393099B2F
:10C1D0003344099367E70CFB02320C460120A5E7C4
:10C1E00000230134059319464FF00A0C204610F83D
:10C1F000012B303A092A03D9002BC5D00591C3E79A
:10C200000CFB012104460123F0E703AB00932A460F
:10C210000F4B04A93846FEF74DF8421C0646D6D10E
:10C22000AB895B063FF52CAF09981DB0BDE8F08FD8
:10C2300003AB00932A46064B04A93846FEF7DEFA04
:10C24000EBE700BFEC7D0600F67D0600B5A202001C
:10C25000A1BF0200F27D06007047704782B001B9AD
:10C2600001A942B14BB113780B601278101E18BFB0
:10C27000012002B070471046FBE76FF00100F8E7BD
:10C28000F8B5074614460E4621B9BDE8F8401146F8
:10C29000FDF716BF22B9FDF7C3FE25462846F8BDB7
:10C2A00000F02BF8A0420FD221463846FDF708FFD8
:10C2B00005460028F2D031462246FDF781FE314680
:10C2C0003846FDF7ADFEE9E73546E7E710F8012B04
:10C2D00011F8013B012A28BF9A42F7D0D01A7047C3
:10C2E00049B1FF2A85BF8A2303600A704FF0FF30EF
:10C2F00098BF012070470846704751F8043C181F4A
:10C30000002BBCBF0B58C01870470000044A0549F9
:10C310001368002B08BF0B4618441060184670477E
:10C3200084D8002028D50120FEE700BFFBF724B900
:10C33000FBF7C6B90649074A074B9B1A03DD043BC6
:10C34000C858D050FBDC00F041F8FAF779FF000044
:10C35000B833070090A10020C0D10020FEE7FEE71F
:10C36000FEE7FEE7FEE7FEE7FEE7FEE7BFF34F8FDF
:10C370000549064BCA6802F4E0621343CB60BFF381
:10C380004F8F00BFFDE700BF00ED00E00400FA059D
:10C39000034B1868A0F1080358425841704700BF8A
:10C3A00030010010064B1B68082B06D1054B1B689B
:10C3B000032B02D8044AD05C70470020704700BFAE
:10C3C0003001001034010010037E060008B5FFF7AD
:10C3D000DFFF40B14FF080430022C3F80C21C3F8C7
:10C3E0001021C3F83825FFF7D3FF002846D04FF0BF
:10C3F0008052694BD2F80414C3F82015D2F80814FF
:10C40000C3F82415D2F80C14C3F82815D2F8101468
:10C41000C3F82C15D2F81414C3F83015D2F8181438
:10C42000C3F83415D2F81C14C3F84015D2F8201400
:10C43000C3F84415D2F82414C3F84815D2F82814C8
:10C44000C3F84C15D2F82C14C3F85015D2F8301498
:10C45000C3F85415D2F83414C3F86015D2F8381460
:10C46000C3F86415D2F83C14C3F86815D2F8401428
:10C47000C3F86C15D2F84424C3F87025FFF792FF77
:10C4800010B1464B464A1A60FFF78CFF18B1454B76
:10C49000FB22C3F81825FFF785FF48B14249434BFB
:10C4A0000A681B6822F00F0203F00F0313430B60AE
:10C4B000FFF778FF18B13E4B4FF400721A60FFF798
:10C4C00067FF48B14FF08043D3F80024D10744BF41
:10C4D0006FF00102C3F80024364AD2F8883043F4E2
:10C4E0007003C2F88830BFF34F8FBFF36F8F4FF0E8
:10C4F0001023D3F80C22D2071ED52F4B0122C3F8EC
:10C500000425D3F80024002AFBD04FF01022D2F8E3
:10C510000C3223F00103C2F80C32274B1A46D3F831
:10C5200000140029FBD00021C3F80415D2F8003410
:10C53000002BFBD0FFF71AFFD3F80022002A03DB01
:10C54000D3F80432002B23DA1B4B0122C3F8042555
:10C55000D3F80024002AFBD04FF010221221C2F899
:10C560000012D3F80024002AFBD04FF0102312222F
:10C57000C3F80422104B1A46D3F800140029FBD04C
:10C580000021C3F80415D2F80034002BFBD0D1E70A
:10C590000A4B0B4A1A6008BD00C000408C56004090
:10C5A0004881030000F00040E40E004058020010F3
:10C5B0004096024000ED00E000E00140E0A40020D1
:10C5C0000090D0036CDF70476DDF704772DF7047FB
:10C5D00073DF704774DF704776DF704777DF70472F
:10C5E0007ADF70477CDF70478FDF704790DF7047DE
:10C5F000B0DF7047B1DF704766DF704767DF7047B5
:10C6000010B50A4B0A4904460A481B1ADB081B04EA
:10C61000224643F003001FF09DFF2046064ABDE876
:10C62000104040F20B31FDF747B800BFA8320700B9
:10C63000077E0600303207001C7E060070B5114BE5
:10C64000114C4A88E41A114B1B88E4089A420546AB
:10C650004FEA04440DD10A8840F677239A4208D164
:10C660008B880B49033B9BB21A4644F003001FF032
:10C670007AFF2B886A88074944F00400BDE87040BF
:10C680001FF071BF30320700A832070062A50020FA
:10C69000A17E0600BD7E060013B5094B094C019032
:10C6A000E41AE408084B00932404084A08494FF4AC
:10C6B000087344F001001FF06CFF02B010BD00BF12
:10C6C00030320700A8320700268506001C7E0600CF
:10C6D000F67E06000146014819F006BE84E30020FC
:10C6E00030B5224B224C2349E41AE40824040546C1
:10C6F0008DB044F004001FF029FF032D33D8DFE88C
:10C7000005F002262C3044F003041B4920461FF09C
:10C710001DFF2C22002101A8FDF77AFC1E224FF4F8
:10C72000F071CDE90512012314488DF8083001A9F4
:10C730008DF8043017F018FE002111481AF02AFC79
:10C740001049024620461FF005FF0DB030BD0E49CE
:10C7500044F003001FF0FAFEF7E70C4944F0010033
:10C76000F8E70B49FAE70B49F8E700BF303207005A
:10C77000A8320700117F06002B7F06000CDB00208B
:10C78000C5C70200597F0600707F0600957F06002E
:10C79000CE7F0600FB7F060008B5037863B9074B20
:10C7A0003B211888FFF718FF30B1BDE80840044A64
:10C7B00040F21A21FCF780BF08BD00BF62A500202F
:10C7C0001C7E060013B513210D4C0190FFF704FFEA
:10C7D0000C4B019AE41AE4082404034638B10A49D0
:10C7E00044F0020002B0BDE810401FF0BCBE074993
:10C7F00044F0040002B0BDE810401FF0ABBE00BF23
:10C80000A83207003032070022800600638006004D
:10C8100038B50B7805460C4613B1022B19D038BD3C
:10C820001248134B13491B1ADB081B0443F0030087
:10C830001FF08CFE618804F10E02284619F012FEEA
:10C840000028ECD0BDE838400B4A40F2F921FCF753
:10C8500033BF064B06480949C01AC0080004BDE8AA
:10C86000384040F003001FF071BE00BF30320700B7
:10C87000A8320700858006001C7E06009F80060007
:10C88000F8B5047806467CBB184820F07CF9184BB4
:10C890001C70B38A9842074614D21648164D1749A1
:10C8A0002D1AED082D043A4645F001001FF05BFEFD
:10C8B000A742316912D13A4608E0095D042009F027
:10C8C00051FA0134B28A31699442F6DB074820F00C
:10C8D000AAF9BDE8F8400A4809F0D8BA095D042071
:10C8E00009F040FA0134E3E7F8BD00BFB0310700BA
:10C8F00040CA012030320700A8320700B38006008A
:10C90000B4C20020024A136801331360704700BFAD
:10C910009CE50020024A13680BB1013B136070478D
:10C920009CE5002010B560B9064B93F8244044B94B
:10C93000054820F0B5F8054B1C60BDE81040FFF736
:10C94000E9BF10BDE4A40020B03107009CB601206F
:10C9500008B50378042B0AD0052B19D14068B8B16B
:10C96000BDE808400B4A4FF44A71FCF7A5BE0A4BDC
:10C970000A480B49C01AC008000440F003001FF029
:10C98000E5FD084B00221A60BDE80840FFF7C2BF72
:10C9900008BD00BF1C7E060030320700A832070029
:10C9A000DA800600B0E50020044B1A68002112B9B5
:10C9B00001B11A607047013A0121F8E79CE50020B7
:10C9C000014820F080B800BFB03107000A46014698
:10C9D000014820F046B800BFB03107002DE9F3410F
:10C9E000254E32884FF6FF739A42054623D0F42332
:10C9F000224CADF80630224B224FDFF88C80ADF888
:10CA00000410E41AE408240444F00104BDF80430DE
:10CA1000F42B17D81B4FDFF87080338801AA294602
:10CA2000384619F02DFC0246E8B902B0BDE8F081A5
:10CA3000D31F012B02D86FF00600F6E741462046CF
:10CA40001FF088FD0DF1060233882946384619F09B
:10CA500017FC02460028EBD1BDF80430F43BF43556
:10CA6000ADF80430D2E7D31F012BE4D9414620466C
:10CA70001FF070FDD1E700BF62A50020A8320700BB
:10CA80003032070074C20020F580060013B5224C36
:10CA900094F82420012A3CD0142001F0F9FA1BF06C
:10CAA0008FFC20B11D4A4FF4A071FCF705FE002356
:10CAB00000938DF8043094F82D30022B4FF00103D1
:10CAC0000CBF43F0300343F006038DF80030009AAA
:10CAD000134B134043F0447343F4E06300939DF819
